{
  "contractName": "MuqiCompany",
  "abi": [
    {
      "constant": true,
      "inputs": [
        {
          "name": "",
          "type": "uint256"
        }
      ],
      "name": "company",
      "outputs": [
        {
          "name": "name",
          "type": "string"
        },
        {
          "name": "c_address",
          "type": "string"
        },
        {
          "name": "contact",
          "type": "uint256"
        },
        {
          "name": "contract_address",
          "type": "string"
        },
        {
          "name": "username",
          "type": "string"
        },
        {
          "name": "password",
          "type": "string"
        }
      ],
      "payable": false,
      "stateMutability": "view",
      "type": "function"
    },
    {
      "inputs": [],
      "payable": false,
      "stateMutability": "nonpayable",
      "type": "constructor"
    },
    {
      "anonymous": false,
      "inputs": [
        {
          "indexed": false,
          "name": "name",
          "type": "string"
        },
        {
          "indexed": false,
          "name": "c_address",
          "type": "string"
        },
        {
          "indexed": false,
          "name": "contact",
          "type": "uint256"
        },
        {
          "indexed": false,
          "name": "contract_address",
          "type": "string"
        },
        {
          "indexed": false,
          "name": "username",
          "type": "string"
        },
        {
          "indexed": false,
          "name": "password",
          "type": "string"
        }
      ],
      "name": "insertion",
      "type": "event"
    },
    {
      "anonymous": false,
      "inputs": [
        {
          "indexed": false,
          "name": "contract_address",
          "type": "string"
        }
      ],
      "name": "deletion",
      "type": "event"
    },
    {
      "anonymous": false,
      "inputs": [
        {
          "indexed": false,
          "name": "name",
          "type": "string"
        },
        {
          "indexed": false,
          "name": "c_address",
          "type": "string"
        },
        {
          "indexed": false,
          "name": "contact",
          "type": "uint256"
        },
        {
          "indexed": false,
          "name": "contract_address",
          "type": "string"
        },
        {
          "indexed": false,
          "name": "username",
          "type": "string"
        },
        {
          "indexed": false,
          "name": "password",
          "type": "string"
        }
      ],
      "name": "update",
      "type": "event"
    },
    {
      "constant": false,
      "inputs": [
        {
          "name": "_name",
          "type": "string"
        },
        {
          "name": "_c_address",
          "type": "string"
        },
        {
          "name": "_contact",
          "type": "uint256"
        },
        {
          "name": "_contract_address",
          "type": "string"
        },
        {
          "name": "_username",
          "type": "string"
        },
        {
          "name": "_password",
          "type": "string"
        }
      ],
      "name": "setCompany",
      "outputs": [
        {
          "name": "success",
          "type": "bool"
        }
      ],
      "payable": false,
      "stateMutability": "nonpayable",
      "type": "function"
    },
    {
      "constant": false,
      "inputs": [
        {
          "name": "_specificAddress",
          "type": "string"
        },
        {
          "name": "_name",
          "type": "string"
        },
        {
          "name": "_c_address",
          "type": "string"
        },
        {
          "name": "_contact",
          "type": "uint256"
        },
        {
          "name": "_contract_address",
          "type": "string"
        },
        {
          "name": "_username",
          "type": "string"
        },
        {
          "name": "_password",
          "type": "string"
        }
      ],
      "name": "updateCompany",
      "outputs": [
        {
          "name": "success",
          "type": "bool"
        }
      ],
      "payable": false,
      "stateMutability": "nonpayable",
      "type": "function"
    },
    {
      "constant": false,
      "inputs": [
        {
          "name": "_specificAddress",
          "type": "string"
        }
      ],
      "name": "deleteCompany",
      "outputs": [
        {
          "name": "success",
          "type": "bool"
        }
      ],
      "payable": false,
      "stateMutability": "nonpayable",
      "type": "function"
    },
    {
      "constant": true,
      "inputs": [
        {
          "name": "_username",
          "type": "string"
        },
        {
          "name": "_password",
          "type": "string"
        }
      ],
      "name": "companyLogin",
      "outputs": [
        {
          "name": "status",
          "type": "bool"
        },
        {
          "name": "name",
          "type": "string"
        },
        {
          "name": "contract_address",
          "type": "string"
        }
      ],
      "payable": false,
      "stateMutability": "view",
      "type": "function"
    },
    {
      "constant": true,
      "inputs": [
        {
          "name": "_specificAddress",
          "type": "string"
        }
      ],
      "name": "checkIfExist",
      "outputs": [
        {
          "name": "status",
          "type": "bool"
        }
      ],
      "payable": false,
      "stateMutability": "view",
      "type": "function"
    },
    {
      "constant": true,
      "inputs": [],
      "name": "getTotalCompany",
      "outputs": [
        {
          "name": "counting",
          "type": "uint256"
        }
      ],
      "payable": false,
      "stateMutability": "view",
      "type": "function"
    },
    {
      "constant": true,
      "inputs": [],
      "name": "getAllData",
      "outputs": [
        {
          "name": "name",
          "type": "string[]"
        },
        {
          "name": "c_address",
          "type": "string[]"
        },
        {
          "name": "contact",
          "type": "uint256[]"
        },
        {
          "name": "contract_address",
          "type": "string[]"
        },
        {
          "name": "username",
          "type": "string[]"
        },
        {
          "name": "password",
          "type": "string[]"
        }
      ],
      "payable": false,
      "stateMutability": "view",
      "type": "function"
    },
    {
      "constant": true,
      "inputs": [
        {
          "name": "_caddress",
          "type": "string"
        }
      ],
      "name": "getSpecific",
      "outputs": [
        {
          "name": "name",
          "type": "string"
        },
        {
          "name": "c_address",
          "type": "string"
        },
        {
          "name": "contact",
          "type": "uint256"
        },
        {
          "name": "contract_address",
          "type": "string"
        },
        {
          "name": "username",
          "type": "string"
        },
        {
          "name": "password",
          "type": "string"
        }
      ],
      "payable": false,
      "stateMutability": "view",
      "type": "function"
    }
  ],
  "bytecode": "0x608060405234801561001057600080fd5b5060006001819055506127b1806100286000396000f3fe608060405234801561001057600080fd5b50600436106100935760003560e01c806345b2cd111161006657806345b2cd111461013b578063711e815b1461016b57806371bcec5b1461019b578063b5d34e55146101d0578063eacebba31461020057610093565b806314150e0d146100985780631ea576e8146100ca5780632d10fa28146100e85780634301dd621461010b575b600080fd5b6100b260048036036100ad9190810190611f44565b610235565b6040516100c19392919061247d565b60405180910390f35b6100d26105e1565b6040516100df91906125ec565b60405180910390f35b6100f06105f0565b604051610102969594939291906123d7565b60405180910390f35b61012560048036036101209190810190611f03565b610b5c565b6040516101329190612462565b60405180910390f35b610155600480360361015091908101906120de565b610c5c565b6040516101629190612462565b60405180910390f35b61018560048036036101809190810190611f03565b610dc9565b6040516101929190612462565b60405180910390f35b6101b560048036036101b09190810190611f03565b6110c9565b6040516101c7969594939291906124e4565b60405180910390f35b6101ea60048036036101e59190810190611fb0565b611502565b6040516101f79190612462565b60405180910390f35b61021a600480360361021591908101906121df565b611778565b60405161022c96959493929190612568565b60405180910390f35b60006060806000925060008090505b600154811015610565576103ca60008281548110151561026057fe5b90600052602060002090600602016004018054600181600116156101000203166002900480601f0160208091040260200160405190810160405280929190818152602001828054600181600116156101000203166002900480156103055780601f106102da57610100808354040283529160200191610305565b820191906000526020600020905b8154815290600101906020018083116102e857829003601f168201915b50505050508760008481548110151561031a57fe5b90600052602060002090600602016005018054600181600116156101000203166002900480601f0160208091040260200160405190810160405280929190818152602001828054600181600116156101000203166002900480156103bf5780601f10610394576101008083540402835291602001916103bf565b820191906000526020600020905b8154815290600101906020018083116103a257829003601f168201915b505050505088611abb565b156105585760019350836000828154811015156103e357fe5b906000526020600020906006020160000160008381548110151561040357fe5b9060005260206000209060060201600301818054600181600116156101000203166002900480601f0160208091040260200160405190810160405280929190818152602001828054600181600116156101000203166002900480156104a95780601f1061047e576101008083540402835291602001916104a9565b820191906000526020600020905b81548152906001019060200180831161048c57829003601f168201915b50505050509150808054600181600116156101000203166002900480601f0160208091040260200160405190810160405280929190818152602001828054600181600116156101000203166002900480156105455780601f1061051a57610100808354040283529160200191610545565b820191906000526020600020905b81548152906001019060200180831161052857829003601f168201915b50505050509050935093509350506105da565b8080600101915050610244565b50826040518060400160405280600581526020017f66616c73650000000000000000000000000000000000000000000000000000008152506040518060400160405280600581526020017f66616c73650000000000000000000000000000000000000000000000000000008152509250925092505b9250925092565b60008080549050905080905090565b60608060608060608060015460405190808252806020026020018201604052801561062f57816020015b606081526020019060019003908161061a5790505b50955060015460405190808252806020026020018201604052801561066857816020015b60608152602001906001900390816106535790505b50945060015460405190808252806020026020018201604052801561069c5781602001602082028038833980820191505090505b5093506001546040519080825280602002602001820160405280156106d557816020015b60608152602001906001900390816106c05790505b50925060015460405190808252806020026020018201604052801561070e57816020015b60608152602001906001900390816106f95790505b50915060015460405190808252806020026020018201604052801561074757816020015b60608152602001906001900390816107325790505b50905060008090505b600154811015610b41576000808281548110151561076a57fe5b90600052602060002090600602019050806000018054600181600116156101000203166002900480601f0160208091040260200160405190810160405280929190818152602001828054600181600116156101000203166002900480156108125780601f106107e757610100808354040283529160200191610812565b820191906000526020600020905b8154815290600101906020018083116107f557829003601f168201915b5050505050888381518110151561082557fe5b90602001906020020181905250806001018054600181600116156101000203166002900480601f0160208091040260200160405190810160405280929190818152602001828054600181600116156101000203166002900480156108ca5780601f1061089f576101008083540402835291602001916108ca565b820191906000526020600020905b8154815290600101906020018083116108ad57829003601f168201915b505050505087838151811015156108dd57fe5b90602001906020020181905250806002015486838151811015156108fd57fe5b9060200190602002018181525050806003018054600181600116156101000203166002900480601f0160208091040260200160405190810160405280929190818152602001828054600181600116156101000203166002900480156109a35780601f10610978576101008083540402835291602001916109a3565b820191906000526020600020905b81548152906001019060200180831161098657829003601f168201915b505050505085838151811015156109b657fe5b90602001906020020181905250806004018054600181600116156101000203166002900480601f016020809104026020016040519081016040528092919081815260200182805460018160011615610100020316600290048015610a5b5780601f10610a3057610100808354040283529160200191610a5b565b820191906000526020600020905b815481529060010190602001808311610a3e57829003601f168201915b50505050508483815181101515610a6e57fe5b90602001906020020181905250806005018054600181600116156101000203166002900480601f016020809104026020016040519081016040528092919081815260200182805460018160011615610100020316600290048015610b135780601f10610ae857610100808354040283529160200191610b13565b820191906000526020600020905b815481529060010190602001808311610af657829003601f168201915b50505050508383815181101515610b2657fe5b90602001906020020181905250508080600101915050610750565b50858585858585955095509550955095509550909192939495565b600080905060008090505b600154811015610c5257610c33600082815481101515610b8357fe5b90600052602060002090600602016003018054600181600116156101000203166002900480601f016020809104026020016040519081016040528092919081815260200182805460018160011615610100020316600290048015610c285780601f10610bfd57610100808354040283529160200191610c28565b820191906000526020600020905b815481529060010190602001808311610c0b57829003601f168201915b505050505084611b6d565b15610c45576001915081915050610c57565b8080600101915050610b67565b508090505b919050565b6000809050610c69611bc6565b6040518060c00160405280898152602001888152602001878152602001868152602001858152602001848152509050600081908060018154018082558091505090600182039060005260206000209060060201600090919290919091506000820151816000019080519060200190610ce2929190611bfc565b506020820151816001019080519060200190610cff929190611bfc565b50604082015181600201556060820151816003019080519060200190610d26929190611bfc565b506080820151816004019080519060200190610d43929190611bfc565b5060a0820151816005019080519060200190610d60929190611bfc565b505050507f26c9214374d3097ca7757f1f588fecaa75c503557c6b499650d93b8ca253f74c888888888888604051610d9d969594939291906124e4565b60405180910390a160016000815480929190600101919050555060019150819150509695505050505050565b600080600154111515610ddb57600080fd5b60008090505b6001548110156110bb57610ead600082815481101515610dfd57fe5b90600052602060002090600602016003018054600181600116156101000203166002900480601f016020809104026020016040519081016040528092919081815260200182805460018160011615610100020316600290048015610ea25780601f10610e7757610100808354040283529160200191610ea2565b820191906000526020600020905b815481529060010190602001808311610e8557829003601f168201915b505050505084611b6d565b156110ae5760006001805403815481101515610ec557fe5b9060005260206000209060060201600082815481101515610ee257fe5b906000526020600020906006020160008201816000019080546001816001161561010002031660029004610f17929190611c7c565b5060018201816001019080546001816001161561010002031660029004610f3f929190611c7c565b506002820154816002015560038201816003019080546001816001161561010002031660029004610f71929190611c7c565b5060048201816004019080546001816001161561010002031660029004610f99929190611c7c565b5060058201816005019080546001816001161561010002031660029004610fc1929190611c7c565b5090505060006001805403815481101515610fd857fe5b906000526020600020906006020160008082016000610ff79190611d03565b6001820160006110079190611d03565b600282016000905560038201600061101f9190611d03565b60048201600061102f9190611d03565b60058201600061103f9190611d03565b50506001600081548092919060019003919050555060008054809190600190036110699190611d4b565b507f7c72b1a4a19c12af383023e8093711a346c3ba3774ef383b7ec6ace40f6aa8ad8360405161109991906124c2565b60405180910390a160019150819150506110c4565b8080600101915050610de1565b50600090508090505b919050565b6060806000606080606060008090505b6001548110156114f757600080828154811015156110f357fe5b906000526020600020906006020190506111a9816003018054600181600116156101000203166002900480601f01602080910402602001604051908101604052809291908181526020018280546001816001161561010002031660029004801561119e5780601f106111735761010080835404028352916020019161119e565b820191906000526020600020905b81548152906001019060200180831161118157829003601f168201915b50505050508a611b6d565b156114e957806000018054600181600116156101000203166002900480601f0160208091040260200160405190810160405280929190818152602001828054600181600116156101000203166002900480156112465780601f1061121b57610100808354040283529160200191611246565b820191906000526020600020905b81548152906001019060200180831161122957829003601f168201915b50505050509750806001018054600181600116156101000203166002900480601f0160208091040260200160405190810160405280929190818152602001828054600181600116156101000203166002900480156112e55780601f106112ba576101008083540402835291602001916112e5565b820191906000526020600020905b8154815290600101906020018083116112c857829003601f168201915b5050505050965080600201549550806003018054600181600116156101000203166002900480601f01602080910402602001604051908101604052809291908181526020018280546001816001161561010002031660029004801561138b5780601f106113605761010080835404028352916020019161138b565b820191906000526020600020905b81548152906001019060200180831161136e57829003601f168201915b50505050509450806004018054600181600116156101000203166002900480601f01602080910402602001604051908101604052809291908181526020018280546001816001161561010002031660029004801561142a5780601f106113ff5761010080835404028352916020019161142a565b820191906000526020600020905b81548152906001019060200180831161140d57829003601f168201915b50505050509350806005018054600181600116156101000203166002900480601f0160208091040260200160405190810160405280929190818152602001828054600181600116156101000203166002900480156114c95780601f1061149e576101008083540402835291602001916114c9565b820191906000526020600020905b8154815290600101906020018083116114ac57829003601f168201915b5050505050925087878787878797509750975097509750975050506114f9565b5080806001019150506110d9565b505b91939550919395565b600080600090505b600154811015611764576115d660008281548110151561152657fe5b90600052602060002090600602016003018054600181600116156101000203166002900480601f0160208091040260200160405190810160405280929190818152602001828054600181600116156101000203166002900480156115cb5780601f106115a0576101008083540402835291602001916115cb565b820191906000526020600020905b8154815290600101906020018083116115ae57829003601f168201915b50505050508a611b6d565b1561175757876000828154811015156115eb57fe5b9060005260206000209060060201600001908051906020019061160f929190611d7d565b508660008281548110151561162057fe5b90600052602060002090600602016001019080519060200190611644929190611d7d565b508560008281548110151561165557fe5b9060005260206000209060060201600201819055508460008281548110151561167a57fe5b9060005260206000209060060201600301908051906020019061169e929190611d7d565b50836000828154811015156116af57fe5b906000526020600020906006020160040190805190602001906116d3929190611d7d565b50826000828154811015156116e457fe5b90600052602060002090600602016005019080519060200190611708929190611d7d565b507f406c1165850de51a278625a371a25e9a28efd64f1c527068192aeae9d5b98441888888888888604051611742969594939291906124e4565b60405180910390a1600191508191505061176d565b808060010191505061150a565b50600090508090505b979650505050505050565b60008181548110151561178757fe5b9060005260206000209060060201600091509050806000018054600181600116156101000203166002900480601f0160208091040260200160405190810160405280929190818152602001828054600181600116156101000203166002900480156118335780601f1061180857610100808354040283529160200191611833565b820191906000526020600020905b81548152906001019060200180831161181657829003601f168201915b505050505090806001018054600181600116156101000203166002900480601f0160208091040260200160405190810160405280929190818152602001828054600181600116156101000203166002900480156118d15780601f106118a6576101008083540402835291602001916118d1565b820191906000526020600020905b8154815290600101906020018083116118b457829003601f168201915b505050505090806002015490806003018054600181600116156101000203166002900480601f0160208091040260200160405190810160405280929190818152602001828054600181600116156101000203166002900480156119755780601f1061194a57610100808354040283529160200191611975565b820191906000526020600020905b81548152906001019060200180831161195857829003601f168201915b505050505090806004018054600181600116156101000203166002900480601f016020809104026020016040519081016040528092919081815260200182805460018160011615610100020316600290048015611a135780601f106119e857610100808354040283529160200191611a13565b820191906000526020600020905b8154815290600101906020018083116119f657829003601f168201915b505050505090806005018054600181600116156101000203166002900480601f016020809104026020016040519081016040528092919081815260200182805460018160011615610100020316600290048015611ab15780601f10611a8657610100808354040283529160200191611ab1565b820191906000526020600020905b815481529060010190602001808311611a9457829003601f168201915b5050505050905086565b600083604051602001611ace91906124c2565b6040516020818303038152906040528051906020012085604051602001611af591906124c2565b60405160208183030381529060405280519060200120148015611b63575081604051602001611b2491906124c2565b6040516020818303038152906040528051906020012083604051602001611b4b91906124c2565b60405160208183030381529060405280519060200120145b9050949350505050565b600081604051602001611b8091906124c2565b6040516020818303038152906040528051906020012083604051602001611ba791906124c2565b6040516020818303038152906040528051906020012014905092915050565b6040518060c001604052806060815260200160608152602001600081526020016060815260200160608152602001606081525090565b828054600181600116156101000203166002900490600052602060002090601f016020900481019282601f10611c3d57805160ff1916838001178555611c6b565b82800160010185558215611c6b579182015b82811115611c6a578251825591602001919060010190611c4f565b5b509050611c789190611dfd565b5090565b828054600181600116156101000203166002900490600052602060002090601f016020900481019282601f10611cb55780548555611cf2565b82800160010185558215611cf257600052602060002091601f016020900482015b82811115611cf1578254825591600101919060010190611cd6565b5b509050611cff9190611dfd565b5090565b50805460018160011615610100020316600290046000825580601f10611d295750611d48565b601f016020900490600052602060002090810190611d479190611dfd565b5b50565b815481835581811115611d7857600602816006028360005260206000209182019101611d779190611e22565b5b505050565b828054600181600116156101000203166002900490600052602060002090601f016020900481019282601f10611dbe57805160ff1916838001178555611dec565b82800160010185558215611dec579182015b82811115611deb578251825591602001919060010190611dd0565b5b509050611df99190611dfd565b5090565b611e1f91905b80821115611e1b576000816000905550600101611e03565b5090565b90565b611e9691905b80821115611e925760008082016000611e419190611d03565b600182016000611e519190611d03565b6002820160009055600382016000611e699190611d03565b600482016000611e799190611d03565b600582016000611e899190611d03565b50600601611e28565b5090565b90565b600082601f8301121515611eac57600080fd5b8135611ebf611eba82612634565b612607565b91508082526020830160208301858383011115611edb57600080fd5b611ee6838284612724565b50505092915050565b6000611efb823561271a565b905092915050565b600060208284031215611f1557600080fd5b600082013567ffffffffffffffff811115611f2f57600080fd5b611f3b84828501611e99565b91505092915050565b60008060408385031215611f5757600080fd5b600083013567ffffffffffffffff811115611f7157600080fd5b611f7d85828601611e99565b925050602083013567ffffffffffffffff811115611f9a57600080fd5b611fa685828601611e99565b9150509250929050565b600080600080600080600060e0888a031215611fcb57600080fd5b600088013567ffffffffffffffff811115611fe557600080fd5b611ff18a828b01611e99565b975050602088013567ffffffffffffffff81111561200e57600080fd5b61201a8a828b01611e99565b965050604088013567ffffffffffffffff81111561203757600080fd5b6120438a828b01611e99565b95505060606120548a828b01611eef565b945050608088013567ffffffffffffffff81111561207157600080fd5b61207d8a828b01611e99565b93505060a088013567ffffffffffffffff81111561209a57600080fd5b6120a68a828b01611e99565b92505060c088013567ffffffffffffffff8111156120c357600080fd5b6120cf8a828b01611e99565b91505092959891949750929550565b60008060008060008060c087890312156120f757600080fd5b600087013567ffffffffffffffff81111561211157600080fd5b61211d89828a01611e99565b965050602087013567ffffffffffffffff81111561213a57600080fd5b61214689828a01611e99565b955050604061215789828a01611eef565b945050606087013567ffffffffffffffff81111561217457600080fd5b61218089828a01611e99565b935050608087013567ffffffffffffffff81111561219d57600080fd5b6121a989828a01611e99565b92505060a087013567ffffffffffffffff8111156121c657600080fd5b6121d289828a01611e99565b9150509295509295509295565b6000602082840312156121f157600080fd5b60006121ff84828501611eef565b91505092915050565b60006122148383612347565b905092915050565b600061222883836123b9565b60208301905092915050565b600061223f8261267a565b61224981856126c0565b93508360208202850161225b85612660565b60005b84811015612294578383038852612276838351612208565b9250612281826126a6565b915060208801975060018101905061225e565b508196508694505050505092915050565b60006122b082612685565b6122ba81856126d1565b93506122c58361266d565b60005b828110156122f3576122db86835161221c565b95506122e6826126b3565b91506001810190506122c8565b50849250505092915050565b61230881612704565b82525050565b60006123198261269b565b61232381856126f3565b9350612333818560208601612733565b61233c81612766565b840191505092915050565b600061235282612690565b61235c81856126e2565b935061236c818560208601612733565b61237581612766565b840191505092915050565b600061238b82612690565b61239581856126f3565b93506123a5818560208601612733565b6123ae81612766565b840191505092915050565b6123c281612710565b82525050565b6123d181612710565b82525050565b600060c08201905081810360008301526123f18189612234565b905081810360208301526124058188612234565b9050818103604083015261241981876122a5565b9050818103606083015261242d8186612234565b905081810360808301526124418185612234565b905081810360a08301526124558184612234565b9050979650505050505050565b600060208201905061247760008301846122ff565b92915050565b600060608201905061249260008301866122ff565b81810360208301526124a4818561230e565b905081810360408301526124b8818461230e565b9050949350505050565b600060208201905081810360008301526124dc818461230e565b905092915050565b600060c08201905081810360008301526124fe818961230e565b90508181036020830152612512818861230e565b905061252160408301876123c8565b8181036060830152612533818661230e565b90508181036080830152612547818561230e565b905081810360a083015261255b818461230e565b9050979650505050505050565b600060c08201905081810360008301526125828189612380565b905081810360208301526125968188612380565b90506125a560408301876123c8565b81810360608301526125b78186612380565b905081810360808301526125cb8185612380565b905081810360a08301526125df8184612380565b9050979650505050505050565b600060208201905061260160008301846123c8565b92915050565b6000604051905081810181811067ffffffffffffffff8211171561262a57600080fd5b8060405250919050565b600067ffffffffffffffff82111561264b57600080fd5b601f19601f8301169050602081019050919050565b6000602082019050919050565b6000602082019050919050565b600081519050919050565b600081519050919050565b600081519050919050565b600081519050919050565b6000602082019050919050565b6000602082019050919050565b600082825260208201905092915050565b600082825260208201905092915050565b600082825260208201905092915050565b600082825260208201905092915050565b60008115159050919050565b6000819050919050565b6000819050919050565b82818337600083830152505050565b60005b83811015612751578082015181840152602081019050612736565b83811115612760576000848401525b50505050565b6000601f19601f830116905091905056fea265627a7a72305820e0fd1d7464fcedd3302e6230dd2464c97a14df82b3a78488de85c7e2352e924a6c6578706572696d656e74616cf50037",
  "source": "pragma solidity 0.5.5;\r\npragma experimental ABIEncoderV2;\r\ncontract MuqiCompany {\r\n    \r\n    event insertion(string name , string c_address, uint256 contact,string contract_address,string username,string password);// insertion with specific data\r\n    event deletion(string contract_address); // deletion true specific name\r\n    event update(string name,string c_address,uint256 contact,string contract_address,string username,string password); // updating true specific name\r\n    \r\n    struct Company{\r\n        string name;\r\n        string c_address;\r\n        uint256 contact;\r\n        string contract_address;\r\n        string username;\r\n        string password;\r\n    }\r\n\r\n    Company[] public company;\r\n    uint256 private totalCompany;\r\n    \r\n    constructor() public {\r\n       totalCompany = 0;\r\n    }\r\n   //web3Function\r\n   \r\n   // insertion\r\n   function setCompany(string memory _name, string memory _c_address, uint256 _contact,string memory _contract_address,string memory _username,string memory _password) public returns (bool success){\r\n            success=false;\r\n          Company memory newCompany = Company(_name,_c_address,_contact,_contract_address,_username,_password);\r\n            company.push(newCompany);\r\n            emit insertion(_name,_c_address,_contact,_contract_address,_username,_password);\r\n            totalCompany++;\r\n            success=true;\r\n            return (success);\r\n       \r\n        \r\n       \r\n   }\r\n   // update specific company details\r\n   function updateCompany(string memory _specificAddress,string memory _name,string memory _c_address, uint256 _contact,string memory _contract_address,string memory _username,string memory _password) public returns (bool success){\r\n       //This has a problem we need loop\r\n       \r\n       for(uint i =0; i< totalCompany; i++){\r\n           if(compareStrings(company[i].contract_address ,_specificAddress)){\r\n              company[i].name = _name; \r\n              company[i].c_address = _c_address;\r\n              company[i].contact = _contact;\r\n              company[i].contract_address = _contract_address;\r\n              company[i].username = _username;\r\n              company[i].password = _password;\r\n              emit update(_name,_c_address,_contact,_contract_address,_username,_password);\r\n              return (success=true);\r\n           }\r\n       }\r\n       return (success=false);\r\n   }\r\n   \r\n   //delete of specific Company in contract\r\n    function deleteCompany(string memory _specificAddress) public returns(bool success){\r\n        require(totalCompany > 0);\r\n        for(uint i =0; i< totalCompany; i++){\r\n           if(compareStrings(company[i].contract_address , _specificAddress)){\r\n              company[i] = company[totalCompany-1]; // pushing last into current arrray index which we gonna delete\r\n              delete company[totalCompany-1]; // now deleteing last index\r\n              totalCompany--; //total count decrease\r\n              company.length--; // array length decrease\r\n              //emit event\r\n              emit deletion(_specificAddress);\r\n              return (success=true);\r\n           }\r\n       }\r\n       return (success=false);\r\n   }\r\n   \r\n   //loginProcess by checking if address and password exist on our contract\r\n   function companyLogin(string memory _username,string memory _password) public view returns(bool status,string memory name,string memory contract_address){\r\n            status=false;\r\n        for(uint i =0; i< totalCompany; i++){\r\n           if(compareLogin(company[i].username, _username,company[i].password,_password)){\r\n                  status=true;\r\n                  return (status, company[i].name,company[i].contract_address);\r\n           }\r\n       }\r\n       return (status,\"false\",\"false\"); // if not found on contract\r\n   }  \r\n   \r\n   \r\n    function checkIfExist(string memory _specificAddress) public view returns(bool status){\r\n            status=false;\r\n        for(uint i =0; i< totalCompany; i++){\r\n           if(compareStrings(company[i].contract_address, _specificAddress)){\r\n                  status=true;\r\n                  return (status);\r\n           }\r\n       }\r\n       return (status); // if not found on contract\r\n   }  \r\n   \r\n   \r\n   function compareLogin (string memory a, string memory b,string memory c, string memory d)  internal pure returns (bool){\r\n        return (keccak256(abi.encode(a)) == keccak256(abi.encode(b)) && keccak256(abi.encode(c)) == keccak256(abi.encode(d)));\r\n   }\r\n   \r\n   function compareStrings (string memory a, string memory b)  internal pure returns (bool){\r\n        return (keccak256(abi.encode(a)) == keccak256(abi.encode(b)));\r\n   }\r\n   \r\n   function getTotalCompany() public view returns (uint256 counting){\r\n       counting = company.length;\r\n      return (counting);\r\n   }\r\n   \r\n   function getAllData() public view returns(string[] memory name,string[] memory c_address,uint256[] memory contact,string[] memory contract_address,string[] memory username,string[] memory password){\r\n       name= new  string[](totalCompany);\r\n       c_address= new string[](totalCompany);\r\n       contact= new uint256[](totalCompany);\r\n       contract_address= new string[](totalCompany);\r\n       username= new string[](totalCompany);\r\n       password= new string[](totalCompany);\r\n              for (uint i = 0; i < totalCompany; i++) {\r\n                  Company storage companys = company[i];\r\n                  \r\n                  name[i]=companys.name;\r\n                  c_address[i]=companys.c_address;\r\n                  contact[i]=companys.contact;\r\n                  contract_address[i]=companys.contract_address;\r\n                  username[i]=companys.username;\r\n                  password[i]=companys.password;\r\n              }\r\n              return (name,c_address,contact,contract_address,username,password);\r\n   }\r\n   \r\n   function getSpecific(string memory _caddress) public view returns(string memory name,string memory c_address,uint256  contact,string memory contract_address,string memory username,string memory password){\r\n  \r\n              for (uint i = 0; i < totalCompany; i++) {\r\n                  Company storage companys = company[i];\r\n                  if(compareStrings(companys.contract_address,_caddress)){\r\n                      name=companys.name;\r\n                      c_address=companys.c_address;\r\n                      contact=companys.contact;\r\n                      contract_address=companys.contract_address;\r\n                      username=companys.username;\r\n                      password=companys.password;\r\n                      \r\n              return (name,c_address,contact,contract_address,username,password);\r\n                  }\r\n              }\r\n   }\r\n  \r\n\r\n}\r\n    ",
  "sourcePath": "c:/xampp/htdocs/ubh-muqi/contracts/contracts/MuqiCompany.sol",
  "compiler": {
    "name": "solc",
    "version": "0.5.5+commit.47a71e8f.Emscripten.clang"
  },
  "schemaVersion": "3.0.17",
  "updatedAt": "2019-11-22T19:07:45.669Z",
  "networkType": "ethereum",
  "devdoc": {
    "methods": {}
  },
  "userdoc": {
    "methods": {}
  }
}