{
  "contractName": "MuqiProducts",
  "abi": [
    {
      "constant": true,
      "inputs": [
        {
          "name": "",
          "type": "uint256"
        }
      ],
      "name": "products",
      "outputs": [
        {
          "name": "meat_type",
          "type": "uint256"
        },
        {
          "name": "meat_category",
          "type": "uint256"
        },
        {
          "name": "cr_address",
          "type": "string"
        },
        {
          "name": "uid",
          "type": "string"
        },
        {
          "name": "odor",
          "type": "uint256"
        },
        {
          "name": "texture",
          "type": "uint256"
        },
        {
          "name": "appearance",
          "type": "uint256"
        },
        {
          "name": "lab_test",
          "type": "string"
        },
        {
          "name": "batch_date",
          "type": "uint256"
        },
        {
          "name": "expiration",
          "type": "uint256"
        },
        {
          "name": "status",
          "type": "string"
        },
        {
          "name": "id",
          "type": "uint256"
        }
      ],
      "payable": false,
      "stateMutability": "view",
      "type": "function"
    },
    {
      "inputs": [],
      "payable": false,
      "stateMutability": "nonpayable",
      "type": "constructor"
    },
    {
      "anonymous": false,
      "inputs": [
        {
          "indexed": false,
          "name": "meat_type",
          "type": "uint256"
        },
        {
          "indexed": false,
          "name": "meat_category",
          "type": "uint256"
        },
        {
          "indexed": false,
          "name": "cr_address",
          "type": "string"
        },
        {
          "indexed": false,
          "name": "uid",
          "type": "string"
        },
        {
          "indexed": false,
          "name": "odor",
          "type": "uint256"
        },
        {
          "indexed": false,
          "name": "texture",
          "type": "uint256"
        },
        {
          "indexed": false,
          "name": "appearance",
          "type": "uint256"
        },
        {
          "indexed": false,
          "name": "lab_test",
          "type": "string"
        },
        {
          "indexed": false,
          "name": "batch_date",
          "type": "uint256"
        },
        {
          "indexed": false,
          "name": "expire",
          "type": "uint256"
        },
        {
          "indexed": false,
          "name": "status",
          "type": "string"
        },
        {
          "indexed": false,
          "name": "id",
          "type": "uint256"
        }
      ],
      "name": "insertion",
      "type": "event"
    },
    {
      "anonymous": false,
      "inputs": [
        {
          "indexed": false,
          "name": "contract_address",
          "type": "string"
        }
      ],
      "name": "deletion",
      "type": "event"
    },
    {
      "anonymous": false,
      "inputs": [
        {
          "indexed": false,
          "name": "uid",
          "type": "string"
        },
        {
          "indexed": false,
          "name": "odor",
          "type": "uint256"
        },
        {
          "indexed": false,
          "name": "texture",
          "type": "uint256"
        },
        {
          "indexed": false,
          "name": "appearance",
          "type": "uint256"
        },
        {
          "indexed": false,
          "name": "lab_test",
          "type": "string"
        },
        {
          "indexed": false,
          "name": "status",
          "type": "string"
        }
      ],
      "name": "update",
      "type": "event"
    },
    {
      "constant": false,
      "inputs": [
        {
          "name": "_meat_type",
          "type": "uint256"
        },
        {
          "name": "_meat_category",
          "type": "uint256"
        },
        {
          "name": "_cr_address",
          "type": "string"
        },
        {
          "name": "_batch",
          "type": "uint256"
        },
        {
          "name": "_expire",
          "type": "uint256"
        }
      ],
      "name": "setProducts",
      "outputs": [
        {
          "name": "success",
          "type": "bool"
        }
      ],
      "payable": false,
      "stateMutability": "nonpayable",
      "type": "function"
    },
    {
      "constant": false,
      "inputs": [
        {
          "name": "_specificid",
          "type": "uint256"
        },
        {
          "name": "_uid",
          "type": "string"
        },
        {
          "name": "_odor",
          "type": "uint256"
        },
        {
          "name": "_texture",
          "type": "uint256"
        },
        {
          "name": "_appearance",
          "type": "uint256"
        },
        {
          "name": "_labtest",
          "type": "string"
        },
        {
          "name": "_status",
          "type": "string"
        }
      ],
      "name": "updateSpecific",
      "outputs": [
        {
          "name": "success",
          "type": "bool"
        }
      ],
      "payable": false,
      "stateMutability": "nonpayable",
      "type": "function"
    },
    {
      "constant": true,
      "inputs": [
        {
          "name": "_specificid",
          "type": "uint256"
        }
      ],
      "name": "getSpecific",
      "outputs": [
        {
          "name": "meat_type",
          "type": "uint256"
        },
        {
          "name": "meat_category",
          "type": "uint256"
        },
        {
          "name": "cr_address",
          "type": "string"
        },
        {
          "name": "appearance",
          "type": "uint256"
        },
        {
          "name": "lab_test",
          "type": "string"
        },
        {
          "name": "batch_date",
          "type": "uint256"
        },
        {
          "name": "expiration",
          "type": "uint256"
        },
        {
          "name": "status",
          "type": "string"
        },
        {
          "name": "id",
          "type": "uint256"
        }
      ],
      "payable": false,
      "stateMutability": "view",
      "type": "function"
    },
    {
      "constant": true,
      "inputs": [],
      "name": "getAllProducts",
      "outputs": [
        {
          "name": "meat_type",
          "type": "uint256[]"
        },
        {
          "name": "meat_category",
          "type": "uint256[]"
        },
        {
          "name": "cr_address",
          "type": "string[]"
        },
        {
          "name": "uid",
          "type": "string[]"
        },
        {
          "name": "odor",
          "type": "uint256[]"
        },
        {
          "name": "texture",
          "type": "uint256[]"
        },
        {
          "name": "appearance",
          "type": "uint256[]"
        },
        {
          "name": "lab_test",
          "type": "string[]"
        },
        {
          "name": "batch_date",
          "type": "uint256[]"
        },
        {
          "name": "expiration",
          "type": "uint256[]"
        },
        {
          "name": "status",
          "type": "string[]"
        }
      ],
      "payable": false,
      "stateMutability": "view",
      "type": "function"
    },
    {
      "constant": true,
      "inputs": [
        {
          "name": "_id",
          "type": "uint256"
        }
      ],
      "name": "checkIfExist",
      "outputs": [
        {
          "name": "status",
          "type": "bool"
        }
      ],
      "payable": false,
      "stateMutability": "view",
      "type": "function"
    },
    {
      "constant": true,
      "inputs": [],
      "name": "getTotalProducts",
      "outputs": [
        {
          "name": "counting",
          "type": "uint256"
        }
      ],
      "payable": false,
      "stateMutability": "view",
      "type": "function"
    }
  ],
  "bytecode": "0x60806040523480156200001157600080fd5b5060006001819055506000600281905550600060038190555060006004819055506040518060400160405280600781526020017f50656e64696e6700000000000000000000000000000000000000000000000000815250600590805190602001906200007f92919062000122565b506040518060400160405280600781526020017f50656e64696e670000000000000000000000000000000000000000000000000081525060069080519060200190620000cd92919062000122565b506040518060400160405280600181526020017f3000000000000000000000000000000000000000000000000000000000000000815250600790805190602001906200011b92919062000122565b50620001d1565b828054600181600116156101000203166002900490600052602060002090601f016020900481019282601f106200016557805160ff191683800117855562000196565b8280016001018555821562000196579182015b828111156200019557825182559160200191906001019062000178565b5b509050620001a59190620001a9565b5090565b620001ce91905b80821115620001ca576000816000905550600101620001b0565b5090565b90565b611f9a80620001e16000396000f3fe608060405234801561001057600080fd5b506004361061007c5760003560e01c80637acc0b201161005b5780637acc0b20146100ff5780637d4b30fb1461013a578063afc071e51461016a578063e03f6d261461019a5761007c565b8062a4ed581461008157806302ee3a52146100b9578063570aea8a146100e1575b600080fd5b61009b600480360361009691908101906115f0565b6101ca565b6040516100b099989796959493929190611c66565b60405180910390f35b6100c1610463565b6040516100d89b9a999897969594939291906119ec565b60405180910390f35b6100e9610af8565b6040516100f69190611b75565b60405180910390f35b610119600480360361011491908101906115f0565b610b07565b6040516101319c9b9a99989796959493929190611d08565b60405180910390f35b610154600480360361014f91908101906115f0565b610dd6565b6040516101619190611ae4565b60405180910390f35b610184600480360361017f9190810190611619565b610e3e565b6040516101919190611ae4565b60405180910390f35b6101b460048036036101af91908101906116ff565b610ffc565b6040516101c19190611ae4565b60405180910390f35b6000806060600060606000806060600080600090505b60015481101561045457600080828154811015156101fa57fe5b90600052602060002090600c0201905061021881600b01548d6113a7565b156104465780600001549a5080600101549950806002018054600181600116156101000203166002900480601f0160208091040260200160405190810160405280929190818152602001828054600181600116156101000203166002900480156102c35780601f10610298576101008083540402835291602001916102c3565b820191906000526020600020905b8154815290600101906020018083116102a657829003601f168201915b5050505050985080600601549750806007018054600181600116156101000203166002900480601f0160208091040260200160405190810160405280929190818152602001828054600181600116156101000203166002900480156103695780601f1061033e57610100808354040283529160200191610369565b820191906000526020600020905b81548152906001019060200180831161034c57829003601f168201915b50505050509650806008015495508060090154945080600a018054600181600116156101000203166002900480601f0160208091040260200160405190810160405280929190818152602001828054600181600116156101000203166002900480156104165780601f106103eb57610100808354040283529160200191610416565b820191906000526020600020905b8154815290600101906020018083116103f957829003601f168201915b5050505050935080600b015492508a8a8a8a8a8a8a8a8a9a509a509a509a509a509a509a509a509a505050610456565b5080806001019150506101e0565b505b9193959799909294969850565b60608060608060608060608060608060606001546040519080825280602002602001820160405280156104a55781602001602082028038833980820191505090505b509a506001546040519080825280602002602001820160405280156104d95781602001602082028038833980820191505090505b50995060015460405190808252806020026020018201604052801561051257816020015b60608152602001906001900390816104fd5790505b50985060015460405190808252806020026020018201604052801561054b57816020015b60608152602001906001900390816105365790505b50975060015460405190808252806020026020018201604052801561057f5781602001602082028038833980820191505090505b5096506001546040519080825280602002602001820160405280156105b35781602001602082028038833980820191505090505b5095506001546040519080825280602002602001820160405280156105e75781602001602082028038833980820191505090505b50945060015460405190808252806020026020018201604052801561062057816020015b606081526020019060019003908161060b5790505b5093506001546040519080825280602002602001820160405280156106545781602001602082028038833980820191505090505b5092506001546040519080825280602002602001820160405280156106885781602001602082028038833980820191505090505b5091506001546040519080825280602002602001820160405280156106c157816020015b60608152602001906001900390816106ac5790505b50905060008090505b600154811015610ac957600080828154811015156106e457fe5b90600052602060002090600c0201905080600001548d8381518110151561070757fe5b906020019060200201818152505080600101548c8381518110151561072857fe5b9060200190602002018181525050806002018054600181600116156101000203166002900480601f0160208091040260200160405190810160405280929190818152602001828054600181600116156101000203166002900480156107ce5780601f106107a3576101008083540402835291602001916107ce565b820191906000526020600020905b8154815290600101906020018083116107b157829003601f168201915b50505050508b838151811015156107e157fe5b90602001906020020181905250806003018054600181600116156101000203166002900480601f0160208091040260200160405190810160405280929190818152602001828054600181600116156101000203166002900480156108865780601f1061085b57610100808354040283529160200191610886565b820191906000526020600020905b81548152906001019060200180831161086957829003601f168201915b50505050508a8381518110151561089957fe5b90602001906020020181905250806004015489838151811015156108b957fe5b9060200190602002018181525050806005015488838151811015156108da57fe5b9060200190602002018181525050806006015487838151811015156108fb57fe5b9060200190602002018181525050806007018054600181600116156101000203166002900480601f0160208091040260200160405190810160405280929190818152602001828054600181600116156101000203166002900480156109a15780601f10610976576101008083540402835291602001916109a1565b820191906000526020600020905b81548152906001019060200180831161098457829003601f168201915b505050505086838151811015156109b457fe5b90602001906020020181905250806008015485838151811015156109d457fe5b9060200190602002018181525050806009015484838151811015156109f557fe5b906020019060200201818152505080600a018054600181600116156101000203166002900480601f016020809104026020016040519081016040528092919081815260200182805460018160011615610100020316600290048015610a9b5780601f10610a7057610100808354040283529160200191610a9b565b820191906000526020600020905b815481529060010190602001808311610a7e57829003601f168201915b50505050508383815181101515610aae57fe5b906020019060200201819052505080806001019150506106ca565b508a8a8a8a8a8a8a8a8a8a8a9a509a509a509a509a509a509a509a509a509a509a50909192939495969798999a565b60008080549050905080905090565b600081815481101515610b1657fe5b90600052602060002090600c0201600091509050806000015490806001015490806002018054600181600116156101000203166002900480601f016020809104026020016040519081016040528092919081815260200182805460018160011615610100020316600290048015610bce5780601f10610ba357610100808354040283529160200191610bce565b820191906000526020600020905b815481529060010190602001808311610bb157829003601f168201915b505050505090806003018054600181600116156101000203166002900480601f016020809104026020016040519081016040528092919081815260200182805460018160011615610100020316600290048015610c6c5780601f10610c4157610100808354040283529160200191610c6c565b820191906000526020600020905b815481529060010190602001808311610c4f57829003601f168201915b505050505090806004015490806005015490806006015490806007018054600181600116156101000203166002900480601f016020809104026020016040519081016040528092919081815260200182805460018160011615610100020316600290048015610d1c5780601f10610cf157610100808354040283529160200191610d1c565b820191906000526020600020905b815481529060010190602001808311610cff57829003601f168201915b50505050509080600801549080600901549080600a018054600181600116156101000203166002900480601f016020809104026020016040519081016040528092919081815260200182805460018160011615610100020316600290048015610dc65780601f10610d9b57610100808354040283529160200191610dc6565b820191906000526020600020905b815481529060010190602001808311610da957829003601f168201915b50505050509080600b015490508c565b600080905060008090505b600154811015610e3457610e15600082815481101515610dfd57fe5b90600052602060002090600c0201600b0154846113a7565b15610e27576001915081915050610e39565b8080600101915050610de1565b508090505b919050565b600080600090505b600154811015610fe857610e7a600082815481101515610e6257fe5b90600052602060002090600c0201600b01548a6113a7565b15610fdb5787600082815481101515610e8f57fe5b90600052602060002090600c02016003019080519060200190610eb3929190611400565b5086600082815481101515610ec457fe5b90600052602060002090600c02016004018190555085600082815481101515610ee957fe5b90600052602060002090600c02016005018190555084600082815481101515610f0e57fe5b90600052602060002090600c02016006018190555083600082815481101515610f3357fe5b90600052602060002090600c02016007019080519060200190610f57929190611400565b5082600082815481101515610f6857fe5b90600052602060002090600c0201600a019080519060200190610f8c929190611400565b507ff93d8883292d070ef6b14308bf7fce9b759c12f03e10b3b7de273dd35bb1facb888888888888604051610fc696959493929190611aff565b60405180910390a16001915081915050610ff1565b8080600101915050610e46565b50600090508090505b979650505050505050565b600080905060016000815480929190600101919050555061101b611480565b60405180610180016040528088815260200187815260200186815260200160078054600181600116156101000203166002900480601f0160208091040260200160405190810160405280929190818152602001828054600181600116156101000203166002900480156110cf5780601f106110a4576101008083540402835291602001916110cf565b820191906000526020600020905b8154815290600101906020018083116110b257829003601f168201915b5050505050815260200160025481526020016003548152602001600454815260200160058054600181600116156101000203166002900480601f0160208091040260200160405190810160405280929190818152602001828054600181600116156101000203166002900480156111875780601f1061115c57610100808354040283529160200191611187565b820191906000526020600020905b81548152906001019060200180831161116a57829003601f168201915b5050505050815260200185815260200184815260200160068054600181600116156101000203166002900480601f0160208091040260200160405190810160405280929190818152602001828054600181600116156101000203166002900480156112335780601f1061120857610100808354040283529160200191611233565b820191906000526020600020905b81548152906001019060200180831161121657829003601f168201915b5050505050815260200160015481525090506000819080600181540180825580915050906001820390600052602060002090600c020160009091929091909150600082015181600001556020820151816001015560408201518160020190805190602001906112a39291906114e1565b5060608201518160030190805190602001906112c09291906114e1565b506080820151816004015560a0820151816005015560c0820151816006015560e08201518160070190805190602001906112fb9291906114e1565b506101008201518160080155610120820151816009015561014082015181600a01908051906020019061132f9291906114e1565b5061016082015181600b01555050507fb72c0c06560b1d1e508172c0364fbffa2f96e31224af466c8ac8e160ce7f44f2878787600760025460035460045460058c8c600660015460405161138e9c9b9a99989796959493929190611b90565b60405180910390a1600191508191505095945050505050565b6000816040516020016113ba9190611b75565b60405160208183030381529060405280519060200120836040516020016113e19190611b75565b6040516020818303038152906040528051906020012014905092915050565b828054600181600116156101000203166002900490600052602060002090601f016020900481019282601f1061144157805160ff191683800117855561146f565b8280016001018555821561146f579182015b8281111561146e578251825591602001919060010190611453565b5b50905061147c9190611561565b5090565b6040518061018001604052806000815260200160008152602001606081526020016060815260200160008152602001600081526020016000815260200160608152602001600081526020016000815260200160608152602001600081525090565b828054600181600116156101000203166002900490600052602060002090601f016020900481019282601f1061152257805160ff1916838001178555611550565b82800160010185558215611550579182015b8281111561154f578251825591602001919060010190611534565b5b50905061155d9190611561565b5090565b61158391905b8082111561157f576000816000905550600101611567565b5090565b90565b600082601f830112151561159957600080fd5b81356115ac6115a782611e0b565b611dde565b915080825260208301602083018583830111156115c857600080fd5b6115d3838284611f0d565b50505092915050565b60006115e88235611f03565b905092915050565b60006020828403121561160257600080fd5b6000611610848285016115dc565b91505092915050565b600080600080600080600060e0888a03121561163457600080fd5b60006116428a828b016115dc565b975050602088013567ffffffffffffffff81111561165f57600080fd5b61166b8a828b01611586565b965050604061167c8a828b016115dc565b955050606061168d8a828b016115dc565b945050608061169e8a828b016115dc565b93505060a088013567ffffffffffffffff8111156116bb57600080fd5b6116c78a828b01611586565b92505060c088013567ffffffffffffffff8111156116e457600080fd5b6116f08a828b01611586565b91505092959891949750929550565b600080600080600060a0868803121561171757600080fd5b6000611725888289016115dc565b9550506020611736888289016115dc565b945050604086013567ffffffffffffffff81111561175357600080fd5b61175f88828901611586565b9350506060611770888289016115dc565b9250506080611781888289016115dc565b9150509295509295909350565b600061179a83836118cd565b905092915050565b60006117ae83836119ce565b60208301905092915050565b60006117c582611e63565b6117cf8185611ea9565b9350836020820285016117e185611e37565b60005b8481101561181a5783830388526117fc83835161178e565b925061180782611e8f565b91506020880197506001810190506117e4565b508196508694505050505092915050565b600061183682611e6e565b6118408185611eba565b935061184b83611e44565b60005b82811015611879576118618683516117a2565b955061186c82611e9c565b915060018101905061184e565b50849250505092915050565b61188e81611eed565b82525050565b600061189f82611e84565b6118a98185611edc565b93506118b9818560208601611f1c565b6118c281611f4f565b840191505092915050565b60006118d882611e79565b6118e28185611ecb565b93506118f2818560208601611f1c565b6118fb81611f4f565b840191505092915050565b600061191182611e79565b61191b8185611edc565b935061192b818560208601611f1c565b61193481611f4f565b840191505092915050565b60008154600181166000811461195c5760018114611982576119c6565b607f600283041661196d8187611edc565b955060ff1983168652602086019350506119c6565b600282046119908187611edc565b955061199b85611e51565b60005b828110156119bd5781548189015260018201915060208101905061199e565b80880195505050505b505092915050565b6119d781611ef9565b82525050565b6119e681611ef9565b82525050565b6000610160820190508181036000830152611a07818e61182b565b90508181036020830152611a1b818d61182b565b90508181036040830152611a2f818c6117ba565b90508181036060830152611a43818b6117ba565b90508181036080830152611a57818a61182b565b905081810360a0830152611a6b818961182b565b905081810360c0830152611a7f818861182b565b905081810360e0830152611a9381876117ba565b9050818103610100830152611aa8818661182b565b9050818103610120830152611abd818561182b565b9050818103610140830152611ad281846117ba565b90509c9b505050505050505050505050565b6000602082019050611af96000830184611885565b92915050565b600060c0820190508181036000830152611b198189611894565b9050611b2860208301886119dd565b611b3560408301876119dd565b611b4260608301866119dd565b8181036080830152611b548185611894565b905081810360a0830152611b688184611894565b9050979650505050505050565b6000602082019050611b8a60008301846119dd565b92915050565b600061018082019050611ba6600083018f6119dd565b611bb3602083018e6119dd565b8181036040830152611bc5818d611894565b90508181036060830152611bd9818c61193f565b9050611be8608083018b6119dd565b611bf560a083018a6119dd565b611c0260c08301896119dd565b81810360e0830152611c14818861193f565b9050611c246101008301876119dd565b611c326101208301866119dd565b818103610140830152611c45818561193f565b9050611c556101608301846119dd565b9d9c50505050505050505050505050565b600061012082019050611c7c600083018c6119dd565b611c89602083018b6119dd565b8181036040830152611c9b818a611894565b9050611caa60608301896119dd565b8181036080830152611cbc8188611894565b9050611ccb60a08301876119dd565b611cd860c08301866119dd565b81810360e0830152611cea8185611894565b9050611cfa6101008301846119dd565b9a9950505050505050505050565b600061018082019050611d1e600083018f6119dd565b611d2b602083018e6119dd565b8181036040830152611d3d818d611906565b90508181036060830152611d51818c611906565b9050611d60608083018b6119dd565b611d6d60a083018a6119dd565b611d7a60c08301896119dd565b81810360e0830152611d8c8188611906565b9050611d9c6101008301876119dd565b611daa6101208301866119dd565b818103610140830152611dbd8185611906565b9050611dcd6101608301846119dd565b9d9c50505050505050505050505050565b6000604051905081810181811067ffffffffffffffff82111715611e0157600080fd5b8060405250919050565b600067ffffffffffffffff821115611e2257600080fd5b601f19601f8301169050602081019050919050565b6000602082019050919050565b6000602082019050919050565b60008160005260206000209050919050565b600081519050919050565b600081519050919050565b600081519050919050565b600081519050919050565b6000602082019050919050565b6000602082019050919050565b600082825260208201905092915050565b600082825260208201905092915050565b600082825260208201905092915050565b600082825260208201905092915050565b60008115159050919050565b6000819050919050565b6000819050919050565b82818337600083830152505050565b60005b83811015611f3a578082015181840152602081019050611f1f565b83811115611f49576000848401525b50505050565b6000601f19601f830116905091905056fea265627a7a7230582056867fd32e56562b1eb658c664ae07e3f0fb65a46bdd5e3009dd0f087d50d9116c6578706572696d656e74616cf50037",
  "source": "pragma solidity 0.5.5;\r\npragma experimental ABIEncoderV2;\r\ncontract MuqiProducts {\r\n    \r\n    event insertion(uint256 meat_type,uint meat_category,string cr_address,string uid,uint256 odor,uint256 texture,uint256 appearance,string lab_test,uint256 batch_date,uint256 expire,string status,uint256 id);// insertion with specific data\r\n    event deletion(string contract_address); // deletion true specific name\r\n    event update(string uid,uint256 odor,uint256 texture, uint256 appearance,string lab_test,string status); // updating true specific name\r\n    \r\n    struct Products{\r\n        uint256 meat_type;//(1-chicken,2- meat,3-beef)\r\n        uint256 meat_category;//(1-raw,2-processed)\r\n        string cr_address; //company id where belong the product is\r\n        string uid;//inspector id/ inspector specific address\r\n        uint256 odor; //(1-4)\r\n        uint256 texture; //(1-4)\r\n        uint256 appearance; //(1-4);\r\n        string lab_test; //(pending/passed/condemned)\r\n        uint256 batch_date;//production data\r\n        uint256 expiration;\r\n        string status;//(pending/passed/condemned)\r\n        uint256 id; //specific id of each data from central database to eth network\r\n    }\r\n\r\n    Products[] public products;\r\n    uint256 private totalProducts;\r\n    uint256 private iodor;\r\n    uint256 private itexture;\r\n    uint256 private iappearance;\r\n    string private ilabtest;\r\n    string private istatus;\r\n    string private iuid;\r\n    uint256 private inspectiondate;\r\n    \r\n    constructor() public {\r\n       totalProducts = 0;\r\n       iodor=0;\r\n       itexture=0;\r\n       iappearance=0;\r\n       ilabtest=\"Pending\";\r\n       istatus=\"Pending\";\r\n       iuid=\"0\";\r\n    }\r\n   //web3Function\r\n   \r\n   // insertion\r\n   function setProducts(uint256 _meat_type,uint256 _meat_category, string memory _cr_address,uint256 _batch,uint256 _expire) public returns (bool success){\r\n            success=false;\r\n            totalProducts++;\r\n            Products memory newProducts = Products(_meat_type,_meat_category,_cr_address,iuid,iodor,itexture,iappearance,ilabtest,_batch,_expire,istatus,totalProducts);\r\n            products.push(newProducts);\r\n            emit insertion(_meat_type,_meat_category,_cr_address,iuid,iodor,itexture,iappearance,ilabtest,_batch,_expire,istatus,totalProducts);\r\n            success=true;\r\n            return (success);\r\n       \r\n   }\r\n   \r\n   \r\n   // update specific company details\r\n   function updateSpecific(uint256 _specificid,string memory _uid,uint256 _odor, uint256 _texture,uint256 _appearance,string memory _labtest,string memory _status)public returns (bool success){\r\n       \r\n       for(uint i =0; i< totalProducts; i++){\r\n           if(compareInt(products[i].id ,_specificid)){\r\n              products[i].uid = _uid; \r\n              products[i].odor = _odor;\r\n              products[i].texture = _texture;\r\n              products[i].appearance = _appearance;\r\n              products[i].lab_test = _labtest;\r\n              products[i].status = _status;\r\n              emit update(_uid,_odor,_texture,_appearance,_labtest,_status);\r\n              return (success=true);\r\n           }\r\n       }\r\n       return (success=false);\r\n   }\r\n   \r\n   // getting specific products via id\r\n    function getSpecific(uint256 _specificid) public view returns(uint256 meat_type,uint256 meat_category,string memory cr_address,\r\n    uint256  appearance,string memory lab_test,uint256 batch_date,uint256 expiration,string memory status,uint256 id){\r\n      \r\n              for (uint i = 0; i < totalProducts; i++) {\r\n                  Products storage sproducts = products[i];\r\n                  if(compareInt(sproducts.id,_specificid)){\r\n                      meat_type=sproducts.meat_type;\r\n                      meat_category=sproducts.meat_category;\r\n                      cr_address=sproducts.cr_address;\r\n                      appearance=sproducts.appearance;\r\n                      lab_test=sproducts.lab_test;\r\n                      batch_date=sproducts.batch_date;\r\n                      expiration=sproducts.expiration;\r\n                      status=sproducts.status;\r\n                      id=sproducts.id;\r\n                      \r\n              return (meat_type,meat_category,cr_address,appearance,lab_test,batch_date,expiration,status,id);\r\n                  }\r\n              }\r\n   }\r\n   \r\n    function getAllProducts() public view returns(uint256[] memory meat_type,uint256[] memory meat_category,string[] memory cr_address,string[] memory uid,uint256[] memory odor,uint256[] memory texture,\r\n    uint256[] memory appearance,string[] memory lab_test,uint256[] memory batch_date,uint256[] memory expiration,string[] memory status){\r\n       meat_type= new  uint256[](totalProducts);\r\n       meat_category= new  uint256[](totalProducts);\r\n       cr_address= new  string[](totalProducts);\r\n       uid= new  string[](totalProducts);\r\n       odor= new  uint256[](totalProducts);\r\n       texture= new  uint256[](totalProducts);\r\n       appearance= new  uint256[](totalProducts);\r\n       lab_test= new  string[](totalProducts);\r\n       batch_date= new  uint256[](totalProducts);\r\n       expiration= new  uint256[](totalProducts);\r\n       status= new  string[](totalProducts);\r\n      \r\n              for (uint i = 0; i < totalProducts; i++) {\r\n                  Products storage sproducts = products[i];\r\n                      meat_type[i]=sproducts.meat_type;\r\n                      meat_category[i]=sproducts.meat_category;\r\n                      cr_address[i]=sproducts.cr_address;\r\n                      uid[i]=sproducts.uid;\r\n                      odor[i]=sproducts.odor;\r\n                      texture[i]=sproducts.texture;\r\n                      appearance[i]=sproducts.appearance;\r\n                      lab_test[i]=sproducts.lab_test;\r\n                      batch_date[i]=sproducts.batch_date;\r\n                      expiration[i]=sproducts.expiration;\r\n                      status[i]=sproducts.status;\r\n              }\r\n              \r\n              return (meat_type,meat_category,cr_address,uid,odor,texture,appearance,lab_test,batch_date,expiration,status);\r\n                 \r\n   }\r\n   \r\n\r\n   \r\n    function checkIfExist(uint256 _id) public view returns(bool status){\r\n            status=false;\r\n        for(uint i =0; i< totalProducts; i++){\r\n           if(compareInt(products[i].id, _id)){\r\n                  status=true;\r\n                  return (status);\r\n           }\r\n       }\r\n       return (status); // if not found on contract\r\n   }  \r\n  \r\n   \r\n   function compareStrings (string memory a, string memory b)  internal pure returns (bool){\r\n        return (keccak256(abi.encode(a)) == keccak256(abi.encode(b)));\r\n   }\r\n   \r\n     function compareInt (uint256 a, uint256  b)  internal pure returns (bool){\r\n        return (keccak256(abi.encode(a)) == keccak256(abi.encode(b)));\r\n   }\r\n   \r\n   function getTotalProducts() public view returns (uint256 counting){\r\n       counting = products.length;\r\n      return (counting);\r\n   }\r\n   \r\n  \r\n\r\n}\r\n    ",
  "sourcePath": "c:/xampp/htdocs/ubh-muqi/contracts/contracts/MuqiProducts.sol",
  "compiler": {
    "name": "solc",
    "version": "0.5.5+commit.47a71e8f.Emscripten.clang"
  },
  "schemaVersion": "3.0.17",
  "updatedAt": "2019-11-22T19:08:46.611Z",
  "networkType": "ethereum",
  "devdoc": {
    "methods": {}
  },
  "userdoc": {
    "methods": {}
  }
}